:020000040000fa
:10000000f0ff0320811e00003b2700001f28000096
:100010003b2e0000172f00003f31000000000000c1
:100020000000000000000000000000002b32000073
:100030006f2b0000000000002b320000d92f0000c1
:100040002b3200002b3200002b3200002b3200003c
:100050002b3200002b3200002b3200002b3200002c
:100060002b3200002b3200002b3200002b3200001c
:100070002b3200002b3200002b3200002b3200000c
:100080002b3200002b3200002b3200002b320000fc
:100090002b3200002b3200002b3200002b320000ec
:1000a0002b3200002b3200002b320000912f000079
:1000b0002b3200002b3200002b3200002b320000cc
:1000c0002b3200002b3200002b3200002b320000bc
:1000d0002b3200002b3200002b3200002b320000ac
:1000e0002b3200002b320000000000000000000056
:1000f000000000002b3200002b3200002b320000e9
:100100002b3200002b3200002b3200002b3200007b
:100110002b3200002b320000490d0000490d000079
:10012000490d0000490d00002b3200002b32000069
:100130002b3200002b3200002b3200002b3200004b
:100140002b3200002b3200002b3200002b3200003b
:100150002b3200002b3200000000000000000000e5
:10016000000000000000000000000000000000008f
:1001700000000000000000002b3200002b320000c5
:100180002b3200002b3200002b3200002b320000fb
:10019000000000002b3200002b3200002b32000048
:1001a0002b3200002b3200002b3200002b320000db
:1001b0002b3200002b3200002b3200002b320000cb
:1001c0002b3200002b3200002b3200002b320000bb
:1001d0002b3200002b3200002b3200002b320000ab
:1001e0002b3200002b3200002b3200002b3200009b
:1001f0002b3200002b3200002b3200002b3200008b
:100200002b32000000000000000000002b32000034
:100210002b3200002b3200002b3200002b3200006a
:100220002b3200002b3200002b3200002b3200005a
:100230002b3200002b3200002b3200002b3200004a
:100240002b3200002b3200002b3200002b3200003a
:100250002b3200002b3200002b3200002b3200002a
:020000040000fa
:10026000f8b500bff8bc08bc9e467047952b00004f
:10027000f8b500bff8bc08bc9e467047712b000063
:020000040000fa
:100280002de9f04f0e4697b015461c46074618b1ab
:1002900083690bb902f074f98a4b9e425cd17e6887
:1002a000b389180762d53369002b5fd00023099307
:1002b00020238df82930dff810a230238df82a3062
:1002c0004ff0ff392b46984613f8012b0ab1252a27
:1002d000f9d1b8eb050b0bd05b462a4631463846c0
:1002e00002f078fa013000f04d81099b5b440993dc
:1002f00098f80030002b00f045810023cde90593ec
:1003000008f10108049307938df853304ff0010b67
:100310004546052215f8011b6b4801f079fc049b4a
:1003200078bbd90644bf20228df853201a0744bf5a
:100330002b228df8532098f800202a2a29d0079ada
:10034000454600204ff00a0c294611f8013b303b8e
:10035000092b5ed908bb27e05c4b9e4201d1be68e9
:100360009ee75b4b9e4208bffe6899e731463846e0
:1003700001f05cfa002899d04ff0ff3017b0bde8cb
:10038000f08fa0eb0a000bfa00f018430490a84687
:10039000bee754f8042b002a01db079204e0524226
:1003a00043f00203079204932b782e2b0bd16b782a
:1003b0002a2b33d154f8043b002b05f10205acbfc6
:1003c0000593cdf8149003222978424801f020fccf
:1003d00040b1404bc01a402303fa00f0049b034392
:1003e0000135049315f8011b3b488df828100622af
:1003f00001f00efc9df82820692a28d036d8582a0a
:1004000000f0c6801fd8002a00f0dd808df8522051
:1004100046e00cfb023201200d4695e70023013532
:10042000059319464ff00a0c284610f8012b303a74
:10043000092a03d9002bc6d00591c4e70cfb012182
:1004400001230546f0e7632a26d0642aded1049b07
:10045000180604f1040c28d52368002b03da2d229a
:100460005b428df853201d490a2246e0732a00f0b2
:10047000ae8008d86f2a1ed0702ac7d1049b43f0e3
:100480002003049303e0752a15d0782abed178237f
:100490008df8553012497ee054f8043b8df8523007
:1004a000012308930df152089ee013f0400f2368da
:1004b00018bf1bb2d1e7049b190604f1040c11d537
:1004c000236812e0dc020020ca2d0000fc0200209c
:1004d000bc020020d02d0000d42d0000a82d00006b
:1004e000b92d00005b06ebd523884d496f2a0cbf60
:1004f00008220a2200208df85300059c0694002c47
:10050000a2bf049820f0040004900df1530080462f
:1005100003b94cb1b3fbf2f402fb143e9a4211f85a
:100520000ee008f801ed4cd9082a0bd1049bdc073a
:1005300008d5089b059a9a42debf302308f8013c93
:1005400008f1ff38a0eb080008906446354b009393
:1005500003aa334604a9384601f0f2f8013011d05d
:10056000089b42463146384602f034f9013009d042
:10057000049b99074dd4079b039a9342b8bf134637
:100580005a1c49d1b3895b063ff5f6ae0998f5e6ea
:1005900023498df85520049a100604f1040c01d566
:1005a000236802e05306fbd52388d00744bf42f0fe
:1005b000200204921bb9049a22f020020492102215
:1005c00098e72346a6e708920df15308bee754f8d2
:1005d000048b059a0021404601f01afb10b1a0ebf4
:1005e00008000590059b089300238df85330ade774
:1005f00001230df129023146384602f0ebf80130b3
:10060000c0d008f10108079b039a9b1a9845efdbbd
:10061000b1e74ff00008f6e7099a1344099351e651
:08062000a82d0000d527000001
:020000040000fa
:100628001c0300201c0000000000000070010020d6
:10063800c000000000000000900200202c00000014
:1006480000000000380300200c000000000000003b
:100658005c030020010000000000000044030020ab
:10066800040000000000000048030020040000000f
:10067800000000004c0300200400000001000000fe
:10068800300200203002002060000000010000005d
:1006980000000000dc020020fc020020bc02002058
:1006a8000000000000000000000000000000000042
:1006b8000000000000000000000000000000000032
:1006c8000000000000000000000000000000000022
:1006d8000000000000000000000000000000000012
:1006e8000000000000000000000000000000000002
:1006f800bc0200202000000000000000dc020020f6
:100708002000000000000000fc0200202000000083
:1007180000000000040000206c010000010000003f
:10072800430000000000000000000000000000007e
:1007380000000000000000000000000000000000b1
:10074800430000000000000000000000000000005e
:100758000000000000000000000000000000000091
:10076800430000000000000000000000000000003e
:100778000000000000000000000000000000000071
:10078800430000000000000000000000000000001e
:100798000000000000000000000000000000000051
:1007a80043000000000000000000000000000000fe
:1007b8000000000000000000000000000000000031
:1007c80043000000000000000000000000000000de
:1007d8000000000000000000000000000000000011
:1007e80043000000000000000000000000000000be
:1007f80000000000000000000000000000000000f1
:1008080011320000453000000000000048150000cb
:10081800dd320000dc320000dc320000dc32000097
:10082800dc320000dc320000dc320000dc32000088
:10083800dc320000dc320000ffffffffffffffff9c
:10084800ffffffffffff000001004153434949003c
:100858000000000000000000000000000000000090
:100868000000000000000000000041534349490017
:100878000000000000000000000000000000000070
:1008880000000000000000000000000050030020ed
:1008980004000000000000005403002004000000d1
:1008a800000000000000002004000000000000001c
:1008b80058030020040000000000000000000000b1
:1008c8000000000022222222222222222222222288
:020000040000fa
:1008d80049324320496e7465726661636520000081
:1008e800257309004572726f72205b25645d203a9a
:1008f800204e756c6c20706f696e7465722065721d
:10090800726f722e000000004974206f6363757265
:1009180073207768656e207468652075736572202a
:10092800747269657320746f2061737369676e20d0
:1009380076616c756520286e6f74206164647265d9
:1009480073732920746f206120706f696e746572eb
:100958002c20776869636820686173206265656e1a
:1009680020696e697469616c697a656420746f20a6
:100978004e554c4c2e0d00004572726f72205b254f
:10098800645d203a20436f6d6d756e6963617469ab
:100998006f6e206661696c757265206572726f7220
:1009a8002e0000004974206f6363757273206475ac
:1009b8006520746f20726561642f77726974652091
:1009c8006f7065726174696f6e206661696c7572ab
:1009d8006520616e6420616c736f20647565207496
:1009e8006f20706f776572206661696c757265201b
:1009f800647572696e6720636f6d6d756e6963618a
:100a080074696f6e0d0000004572726f72205b256d
:100a1800645d203a20446576696365206e6f7420b2
:100a2800666f756e64206572726f722e204974202d
:100a38006f6363757273207768656e2074686520cc
:100a480064657669636520636869702069642069f4
:100a58007320696e636f72726563746c7920726556
:100a680061640d0a000000004572726f72205b25f8
:100a7800645d203a20496e76616c69642073656e06
:100a8800736f7220636f6e66696775726174696fe0
:100a98006e2e0000204974206f636375727320778f
:100aa80068656e2074686572652069732061206dc1
:100ab80069736d6174636820696e2074686520725b
:100ac80065717565737465642066656174757265b2
:100ad80020776974682074686520617661696c6143
:100ae800626c65206f6e650d000000004572726fc4
:100af80072205b25645d203a20556e6b6e6f776eb1
:100b0800206572726f7220636f64650d0a0000bf02
:020000040000fa
:100b1800f0b583b004460f461546104602f00cfaad
:100b2800064690bb14f00f0f1ed114f4f87f53d172
:100b380014f4f05f40f0ab8014f4c04f25d014f4e7
:100b4800005f40f0ef806ff0020614f4804f1cd075
:100b58003b7c8df807302b4601220df10701502010
:100b680001f00efe064610e014f0010f10d16ff0f0
:100b7800020314f0020f11d114f0040f14d114f071
:100b8800080f1dd1002bd0d01e46304603b0f0bd53
:100b98002946384601f064fe0346eae72946384606
:100ba80001f0a6fe0346e7e7fb788df807302b46f1
:100bb80001220df10701512001f0e2fd0346dee7b5
:100bc8003b798df807302b4601220df107015220a1
:100bd80001f0d6fd0346d5e72b4601220df10701aa
:100be8004e2001f015ff03460028cdd1f9793a7a55
:100bf8007b7ab87a14f0100f09d09df807c00cf072
:100c08007f0c97f806e04ceace1c8df807c014f06c
:100c1800200f0ad09df807c02cf0400c890101f084
:100c280040014cea01018df8071014f0400f09d07b
:100c38009df8071021f00401920002f004020a4313
:100c48008df8072014f0800f09d09df8072022f0b6
:100c580002025b0003f0020313438df8073014f41b
:100c6800807f08d09df8073023f0010300f00100d1
:100c780003438df807302b4601220df107014e2062
:100c880001f07efd034600283ff452af7ce72b4677
:100c980001220df107014d2001f0bafe00284dd1c7
:100ca8003a7b7b7bb97b14f4007f09d09df8070061
:100cb80000f07f0097f80bc040eacc108df80700d1
:100cc80014f4806f09d09df8070020f040009201cd
:100cd80002f0400202438df8072014f4006f09d097
:100ce8009df8072022f03802db0003f03803134395
:100cf8008df8073014f4805f08d09df8073023f092
:100d0800070301f007010b438df807302b4601223a
:100d18000df107014d2001f033fd00283ff40caf21
:100d2800064632e7fb7b8df807302b4601220df192
:100d380007014f2001f024fd064606e7064624e792
:020000040000fa
:100d4800664b9b7d002b00f0c88010b5634b5b8b16
:100d580013f0020f16d0624bff2283f820200222e4
:100d680083f821205e4b93f820305bb2b3f1ff3f4c
:100d780000f083805a4b93f820305bb2062b00f0ca
:100d8800948010bd554b5b8b13f0010f07d0544b6b
:100d9800ff2283f82020022283f82120e2e74f4b2c
:100da8005b8b13f0040f07d04d4bff2283f82020f4
:100db800012283f82120d5e7494b93f820305bb214
:100dc800032b3ed0042b10d0022bcbd1444b1b69f4
:100dd8002bb10021424b988801f0acfcc2e70121fd
:100de8003f4b988801f0a6fcbce73d4a936912691d
:100df800934207d03a4a9168581c9061ca5c374bb5
:100e08009a62afe7364b5b6973b1354b9b885b00e1
:100e180043f00103314a5362d369002bfcd1304bb4
:100e2800032283f820209de72c4a536843f440337b
:100e38005360d369002bfcd1294b062283f820206c
:100e480090e7274a5369013bd2699a4208d0234b5d
:100e5800986a234bd968da69541cdc61885481e7a5
:100e68001e4a536843f4e0235360d369002bfcd136
:100e78001b4b062283f82020e9e7194b002283f850
:100e88002020164a536843f440335360d369002b3b
:100e9800fcd1124b83221a76114b5b6a002b3ff46c
:100ea80070af0f4a906a98476be70d4b002283f8a2
:100eb800202083f82120094b83221a761a46538b67
:100ec80003f03003102bfad1054b5b6a002b3ff47b
:100ed80058af034a906a984753e77047002001418a
:040ee8009002002054
:020000040000fa
:100eec002de9f0438db006460d46084602f022f877
:100efc00044620b93eb1012e5bd06ff002042046af
:100f0c000db0bde8f08303238df81d30294607a8ea
:100f1c0001f05efa04460028f1d12b46012202a909
:100f2c004c2001f073fd04460028e8d19df80830f0
:100f3c0043f001038df808302b46012202a94c2006
:100f4c0001f01cfc04462b6a4ff4fa609847002c05
:100f5c00d5d12b46012202a94c2001f057fd9df85a
:100f6c00083003f0010304460028c8d1002bc6d179
:100f7c002b46052202a9422001f048fd0446002818
:100f8c00bdd19df80c3003f001029df80a3003f03e
:100f9c0001035b0043ea82039df8082002f0010282
:100fac001343dab2072aaad0002a14bf1c4607241e
:100fbc00a5e703238df80930294602a801f008faa9
:100fcc00044640b1002c9adb284601f087fd00282e
:100fdc0018bf044693e703238df80830294602a86e
:100fec0001f084fc04460028ecd104238df80c306d
:100ffc008df806302b4601220df10601522001f02e
:10100c00bdfb04460028ddd12a460df10601032064
:10101c0001f018fa04460028d4d12a4602a902206d
:10102c0001f010fa04460028ccd1294601f078fdd5
:10103c0004460028c6d1bdf90660bdf908800d4fe5
:10104c0007f1140002f008f907f12409314648466b
:10105c0001f0e0ff07f12c0002f0fef84146484693
:10106c0001f0d8ffa6eb0803b53b3b2b28bf0824a7
:08107c00aae700bfb824000040
:020000040000fa
:1010840070b586b0044600238df817304e4d2860a5
:101094004e4bc3614e4b83614e4b036202f0c4f866
:1010a4002968012001f01efb0346e0b9236a40f6db
:1010b400b83098472c4629680120fff715ff0646eb
:1010c400454d05f13c0002f0cbf8314605f1100026
:1010d40001f0a4ff236801220df11701402001f063
:1010e40099fc034610b1184606b070bd05f15c00ca
:1010f40002f0b6f89df8171005f1640001f08effb8
:10110400314b1c680023adf804300293039304931d
:10111400adf814302346022201a95d2001f07afcc7
:1011240003460028dfd12346042202a9622001f0ed
:1011340071fc03460028d6d123460a2203a968205d
:1011440001f068fc03460028cdd19df8042084f802
:1011540024209df8052084f825209df80a2084f891
:1011640026209df80b2084f827209df80f109df869
:101174000e2042ea012222859df80d109df80c20d4
:1011840042ea012262859df813109df8122042ea7a
:101194000122a2859df809109df8082042ea012247
:1011a400e2859df8152084f830209df8142084f8f9
:1011b40031209df81120120202f4fe429df8101015
:1011c4000a4362868fe700bf44030020fd2f00001e
:0c11d400752d0000e1320000b82400007e
:020000040000fa
:1011e0002de9f7431e46504b1d6804460f469046b6
:1011f00025b1ab6913b9284601f0c2f94b4b9c42ab
:1012000052d16c68b8f1020f06d0b8f1010f00f2ac
:101210008780002ec0f284802146284601f03afae9
:10122000616b41b104f14403994202d0284600f0b9
:101230008dfd002363630023a3616360a3891b0604
:1012400003d52169284600f081fda38923f44a6370
:1012500023f00303b8f1020fa3815dd001ab6a460e
:101260002146284601f0b4fba3891843a0812ebb78
:10127000009e304602f006f80746002847d1ddf808
:101280000090b1453cd14ff0ff30a38943f00203f9
:10129000a3810023a36004f147032360236101239a
:1012a000636103b0bde8f083214b9c4201d1ac687f
:1012b000a8e7204b9c4208bfec68a3e7002fd8d0da
:1012c000ab6913b9284601f05bf9b8f1010f08bf0b
:1012d000a389276004bf43f00103a381a38913f00e
:1012e0000800c4e9047619d013f0010018bf764253
:1012f0004ff000031dbfa360a6611846a660d0e7ab
:10130000484601f0bfff07460028bcd04e46a389df
:1013100043f08003a381d3e70020b6e7a060c0e7d5
:101320004ff0ff30bde700bf4c030020dc0200207f
:08133000fc020020bc020020b9
:020000040000fa
:101338008a892de9f041054610070c4658d44b68b8
:10134800002b05dc0b6c002b02dc0020bde8f081d3
:10135800e66a002ef9d0002312f480522f682b6021
:1013680032d0606da3895a0705d56368c01a636bcc
:101378000bb1236cc01a00230246e66a216a28468c
:10138800b047431ca38906d129681d292cd82a4aad
:10139800ca40d60728d500226260d9042269226093
:1013a80004d5421c01d12b6803b96065616b2f60bd
:1013b8000029cad004f14403994202d0284600f01b
:1013c800c1fc00206063c1e7216a01232846b047b9
:1013d800411cc7d12b68002bc4d01d2b01d0162b64
:1013e80001d12f60b1e7a38943f04003a381ade7a2
:1013f8000f69002fa9d093070e6808bf4b690f60cb
:1014080018bf0023a6eb07088b60b8f1000f9cdd1e
:1014180043463a46216aa66a2846b047002806dcb1
:10142800a38943f04003a3814ff0ff308ee70744c0
:0c143800a8eb0008e9e700bf010040201d
:020000040000fa
:10144400384b00221a7403f50063374a9a621a462d
:10145400536813f0100ffbd1344b4222c3f884209d
:101464001a46d2f8843013f0400ffad0304b0022e1
:101474009a6377225a631a46d36b13f0040ffbd195
:101484002b4b022283f830201a46d36b13f0020f41
:10149400fbd1274a136c03f00303032bfad1254b2a
:1014a40001225a711a46d37813f0010ffbd01f4b57
:1014b400214a1a621a46536813f0040ffbd11b4bde
:1014c4001e4a5a621a46536813f0080ffbd1174b91
:1014d4004122c3f890201a46d2f8903013f0400ffe
:1014e400fad0124b4122c3f8dc201a46d2f8dc3081
:1014f40013f0400ffad00d4b4122c3f80c211a46c9
:10150400d2f80c3113f0400ffad00a4b6ff07f423f
:101514001a6140f2ff725a61094a9a6102221a6200
:10152400704700bf0014004006013000001c00405a
:1015340000100040000800400701010007010200fc
:0415440056820100ca
:020000040000fa
:10154800002020202020202020202828282828208b
:101558002020202020202020202020202020202083
:1015680020881010101010101010101010101010eb
:1015780010040404040404040404041010101010db
:1015880010104141414141410101010101010101a5
:1015980001010101010101010101010110101010f7
:1015a8001010424242424242020202020202020277
:1015b80002020202020202020202020210101010cb
:1015c80020000000000000000000000000000000f3
:1015d8000000000000000000000000000000000003
:1015e80000000000000000000000000000000000f3
:1015f80000000000000000000000000000000000e3
:1016080000000000000000000000000000000000d2
:1016180000000000000000000000000000000000c2
:1016280000000000000000000000000000000000b2
:1016380000000000000000000000000000000000a2
:0116480000a1
:020000040000fa
:02164a007047e7
:020000040000fa
:10164c002de9f04395b0002001f026fa0022334931
:10165c000f2001f0edfb324801f0fefd10238df858
:10166c004f3001238df8193006a8fff705fd38b16e
:10167c002c4c2b4d05f17c09002605f1880848e01f
:10168c0000238df8053006a901a800f0a1fe044640
:10169c000146254800f0c6fc002ce9d101238df849
:1016ac00093006a901a800f0d3fd044601461f48e5
:1016bc0000f0b8fc002cdbd101238df80a3006aa0f
:1016cc0001a91020fff722fa0146194800f0aafce4
:1016dc00cee73146484600f0a5fc3146404600f0c6
:1016ec00a1fc06a901a800f079fb0746bdf908305a
:1016fc00bdf90620bdf9041005f1940001f08afc37
:10170c00394605f1c00000f08dfc2670284601f02a
:10171c00a3fd2378002bfcd0dbe700bfa532000033
:10172c00081900005c0300203c190000501900004f
:04173c006819000028
:020000040000fa
:101740002de9f04791461f468a680b69ddf8208035
:101750009342b8bf1346c9f8003091f843200646bb
:101760000c4612b10133c9f800302368990642bf14
:10177000d9f800300233c9f80030256815f00605a5
:1017800007d104f1190ae368d9f800209b1aab428b
:1017900028dc94f843302268003318bf01239206f6
:1017a0002dd404f1430239463046c047013020d0e1
:1017b0002368e568d9f8002003f00603042b08bf6e
:1017c000ad1aa36822690cbf25eae575002593428e
:1017d000c4bf9b1aed184ff000091a344d451ad1b9
:1017e000002008e00123524639463046c047013008
:1017f00003d14ff0ff30bde8f0870135c3e7e118b2
:101800005a1c302081f84300224494f8451082f895
:1018100043100233c5e70123224639463046c0470c
:0a1820000130e6d009f10109d8e714
:020000040000fa
:02182a00704705
:020000040000fa
:10182c00324b70b51d6806460c4625b1ab6913b931
:10183c00284600f09ffe2e4b9c420fd16c68b4f9e9
:10184c000c309ab215072cd4d00611d40922326070
:10185c0043f04003a3814ff0ff303ee0254b9c4208
:10186c0001d1ac68ebe7244b9c4208bfec68e6e77f
:10187c00510712d5616b41b104f14403994202d076
:10188c00304600f05dfa00236363a38923f0240340
:10189c00a3810023636023692360a38943f00803b9
:1018ac00a38123694bb9a38903f42073b3f5007f9b
:1018bc0003d02146304600f0fdfba28912f0010353
:1018cc000cd00023a36063695b42a361236953b905
:1018dc00b4f90c3013f08000bad170bd920758bf28
:1018ec006369a360f2e70020f7e700bf4c03002018
:0c18fc00dc020020fc020020bc020020e6
:020000040000fa
:101908000d0a507265737320737769746368206f6a
:101918006e2074686520626f61726420746f207035
:1019280072696e742073656e736f722076616c7560
:1019380065730d00626d6d3135305f7365745f6f6f
:10194800705f6d6f64650000626d6d3135305f7377
:1019580065745f7072657365746d6f64650000000f
:10196800626d6d3135305f7365745f73656e736f6b
:10197800725f73657474696e67730000626d6d31b0
:1019880035305f696e6974007365745f636f6e6686
:10199800696700000d0a5175617465726e696f6e32
:1019a8002078203d202564207c7c2079203d20253e
:1019b80064207c7c207a203d2025640d0a000000ec
:0c19c8006765745f64617461000000bf1b
:020000040000fa
:1019d40070b50e46054618b183690bb900f0cefd0b
:1019e400ab69ac6813b9284600f0c8fd284b9c428b
:1019f40022d16c68b4f90c309a0406d443f4005331
:101a0400a381236e23f400532366a3891b071dd5ea
:101a14002369dbb1013ea36816f8011f013ba360f3
:101a2400e9b9002b2eda22460a21284600f036f8be
:101a3400013011d00a2011e0164b9c4201d1ac6850
:101a4400d8e7154b9c4208bfec68d3e721462846eb
:101a5400fff7eafe0028ddd04ff0ff3070bd002b09
:101a640004daa2699a4206dc0a2904d023685a1cc3
:101a740022601970cfe72246284600f00ff80130a3
:101a8400c9d1e9e723680a205a1c22601870e5e7e7
:0c1a9400dc020020fc020020bc0200204c
:020000040000fa
:101aa000f8b50e461446054618b183690bb900f027
:101ab00067fd274b9c4230d16c68a369a360a38962
:101ac000190734d52369002b31d0b4f90c30f6b2a4
:101ad0009a04374634d523692068c01a6369834263
:101ae00004dc2146284600f0d5fd30bba368013b4d
:101af000a36023685a1c22601e7063690130834210
:101b000004d0a389db0706d50a2e04d12146284636
:101b100000f0c0fd88b93846f8bd0e4b9c4201d19b
:101b2000ac68cae70c4b9c4208bfec68c5e721468d
:101b30002846fff77bfe0028c7d04ff0ff37eae7c3
:101b400043f40053a381236e23f400532366c2e7ba
:0c1b5000dc020020fc020020bc0200208f
:020000040000fa
:101b5c00f8b5cd1c25f0030508350c2d38bf0c2528
:101b6c00002d064601dba94203d90c23336000206b
:101b7c00f8bd01f0cdfb21490a6814469cb9204ff1
:101b8c003b6823b92146304601f0d4fa3860294627
:101b9c00304601f0cffa431c23d10c23336030467e
:101bac0001f0b7fbe3e723685b1b17d40b2b03d9be
:101bbc0023601c44256004e06368a2420cbf0b60e8
:101bcc005360304601f0a5fb04f10b00231d20f0ff
:101bdc000700c21accd01b1aa350c9e7224664686e
:101bec00cce7c41c24f00304a042e3d0211a3046f5
:101bfc0001f0a0fa0130ddd1cfe700bf5003002087
:041c0c00540300205d
:020000040000fa
:101c100001f0ff01102a2bdb10f0070f08d010f89d
:101c2000013b013a8b422dd010f0070f42b3f6d1a1
:101c3000f0b441ea012141ea014122f007047ff0ba
:101c400000070023f0e80256083c85ea010586ea11
:101c5000010685fa47f5a3fa87f586fa47f6a5fa4d
:101c600087f68eb9eed1f0bc01f0ff0102f0070259
:101c700032b110f8013b013a83ea010313b1f8d104
:101c80000020704701387047002d06bf35460338e5
:101c9000073815f0010f07d1013015f4807f02bf1e
:101ca000013015f4c03f0130f0bc0138704700bf6f
:020000040000fa
:101cb00010f5804f39d070b4b2f92a40002c37d0db
:101cc000158d002d38d0002938d0538e002b37d0f9
:101cd000b2f92e60801bc003b2f92c20cb1a1bb2c4
:101ce00003fb02f3002bb8bf0333a0eba3000bb23e
:101cf00003fb05f35b0013f5004344bf03f57f438b
:101d0000ff3304eb234390fbf3f30e4a9342b8bf37
:101d1000134647f6ff729342a8bf13461846002b9e
:101d2000b8bf03f10f00001103e0074800b270478d
:101d3000054800b270bc70470348fae70248f8e76c
:0c1d40000148f6e70180ffff0080ffff74
:020000040000fa
:101d4c0038b50546002945d051f8043c0c1f002b32
:101d5c00b8bfe41801f0dcfa1f4a1368104633b917
:101d6c00636014602846bde8384001f0d2baa34243
:101d7c000cd921686218934204bf1a685b686360cf
:101d8c0004bf521822600460ece713465a680ab18b
:101d9c00a242fad919685818a0420bd12068014404
:101dac00581882421960ddd1106852685a6001449b
:101dbc001960d7e702d90c232b60d3e720682118d0
:101dcc008a4204bf11685268626004bf091821601e
:0c1ddc005c60c7e738bd00bf500300206a
:020000040000fa
:101de8002de9f04383b080460e460023009301930b
:101df8000b4608226946422000f00afe8146b8bb1d
:101e08009df80030db088df800309df901009df841
:101e18000270ff088df802709df9032047ea421707
:101e28009df804506d088df804509df9052045ea89
:101e3800c2159df80640a4088df806409df80720b5
:101e480044ea82143246214643ea401000f05cf826
:101e5800a8f8000032462146384600f09df8a8f858
:101e68000200324621462846fff71effa8f8040064
:081e7800484603b0bde8f08309
:020000040000fa
:101e800008b51b4b98471b4b9847eff3108172b670
:101e9000194ad2f8883043f47003c2f88830bff38f
:101ea0004f8fbff36f8f01b962b6144c202363606c
:101eb00000f090f9124b23f07f030f4a9360114b0f
:101ec0009847a36823f00103a3602346da6812f061
:101ed000010ffbd1094b5a6842f004025a600122fb
:101ee0009a60094b9847094b9847fff7affbfee70d
:101ef0004b1600004b16000000ed00e000600041b2
:101f000000000000412900004b1600004b160000a5
:020000040000fa
:101f100010f5805f3fd011b9518e002939d030b40f
:101f2000538e9b0393fbf1f1a1f5804109b201fbb4
:101f300001f3002bb8bf7f33db1192f9314092f8e7
:101f4000305001fb05f1c90104fb03110029b8bfa2
:101f500001f2ff11491201f5801192f92630a033e8
:101f600003fb01f10029b8bf01f6ff71091300fb63
:101f700001f00028bcbf00f5ff501f3040f34f3088
:101f800092f9243010ebc30048bf0f30001130bc71
:101f90007047024870470148704700bf0080ffff4c
:020000040000fa
:101fa00010f5805f3fd011b9518e002939d030b47f
:101fb000538e9b0393fbf1f1a1f5804109b201fb24
:101fc00001f3002bb8bf7f33db1192f9314092f857
:101fd000305001fb05f1c90104fb03110029b8bf12
:101fe00001f2ff11491201f5801192f92730a03357
:101ff00003fb01f10029b8bf01f6ff71091300fbd3
:1020000001f00028bcbf00f5ff501f3040f34f30f7
:1020100092f9253010ebc30048bf0f30001130bcdf
:102020007047024870470148704700bf0080ffffbb
:020000040000fa
:1020300000293bd010b50c4601461d4800f0f0ffca
:10204000231d032b2dd8dfe803f00e201a02194cb4
:102050004ff0ff3104f1140000f0e2ff04f138000a
:1020600001f000f910bd134c6ff0030104f1a8005a
:1020700000f0d6ff04f1d40001f0f4f8f2e76ff0bd
:1020800001010d4800f0ccffece70a4c6ff00201b3
:1020900004f5cc7000f0c4ff04f5e27001f0e2f842
:1020a000e0e72146054800f0bbffdbe7704700bfd3
:1020b000e8080000d8080000100a0000f40a000038
:020000040000fa
:1020c0008b8973b59d0706460c4607d501f147037a
:1020d0000b600b6101234b6102b070bd01ab6a461e
:1020e00000f076fc009905463046fff737fd78b9d9
:1020f000b4f90c309a05efd423f0030343f0020344
:10210000a38104f147032360236101236361e3e7b3
:102110000d4bb362a389206043f08003a381009b31
:102120006361019b20615bb1b4f90e10304601f090
:1021300027f828b1a38923f0030343f00103a38107
:0c214000a3891d43a581c7e7b132000050
:020000040000fa
:10214c001f4a137843f001031370536813f0010f07
:10215c00fbd11b490022ca614ff010430b624ff4b4
:10216c0000430b634a630b61164b10221a721a75eb
:10217c0083f8202083f82c2083f8382083f844201f
:10218c0083f8502083f85c2083f8682083f874204f
:10219c0083f8802083f88c2083f8982083f8a4207f
:1021ac0083f8b0200f2283f8bc200b7843f0020395
:1021bc000b700a46536813f0020ffbd1704700bf37
:0821cc00002800407001002012
:020000040000fa
:1021d4001e4b1f4a9342f0b438bf002103d203f8c8
:1021e400011b9342fbd11b4ad2e9000150ea0103cf
:1021f4004ff0000610d09468034602f10c076cb946
:1022040021b1014403f8016b9942fbd13a46d2e96a
:10221400000150ea0103eed1f0bc704759b101f15d
:102224000c030c38801a1a443b461c1813f8015b43
:1022340025709342f9d111f0030318bf012303eb76
:10224400910107eb81073a46e1e700bf0000002057
:08225400040000202806000030
:020000040000fa
:10225c0038b504460d46084600f06cfe034688b9b6
:10226c006379013b032b33d8dfe803f0020e1a2607
:10227c000023a3700123e37023712946204600f04c
:10228c0011fb0346184638bd0023a3700423e370ea
:10229c00072323712946204600f004fb0346f1e78f
:1022ac000523a3701723e3702923237129462046a5
:1022bc0000f0f8fa0346e5e70023a3700723e37068
:1022cc000d2323712946204600f0ecfa0346d9e78a
:0622dc006ff00203d6e7db
:020000040000fa
:1022e2002de9f74380460e46144600f0e6ff01282a
:1022f2000ed1731efe2b0bd88df804600546002705
:102302000df10409af4213d1304603b0bde8f083aa
:10231200324604f1580301a9404600f0bafd421cbe
:102322000546ecd1a38943f04003a3810646ebe7bf
:10233200a36817f80910013b002ba36004daa26915
:10234200934207db0a2905d023685a1c22601970c0
:102352000137d7e722464046fff7a1fb431cf7d1de
:02236200e4e7ae
:020000040000fa
:10236400f8b51b4b1e68b369074613b9304600f035
:1023740005f94836d6e90134013b03d53368dbb1ae
:102384003668f7e7b4f90c50a5b9124b2566c4e9d1
:102394000055a560c4e90335c4e90555082229465a
:1023a40004f1580000f074ffc4e90d55c4e9125556
:1023b4002046f8bd6434dfe70421384600f052fdbe
:1023c400044630600028dbd10c233b60f0e700bffb
:0823d400f83200000100ffffd8
:020000040000fa
:1023dc0038b505460c46084600f0acfd034660bb1c
:1023ec006b78042b2bd8dfe803f0030d2a1823009d
:1023fc00204600f075fd0346f8b9214600f029fb94
:10240c0003461ae0204600f06bfd0346a8b92146ae
:10241c00012000f01efb03460fe0204600f060fd9b
:10242c00034650b92146032000f013fb034604e099
:10243c002146002000f052f90346184638bd6ff0d3
:04244c000203fae7a6
:020000040000fa
:10245000f0b589b006460f461546164c204600f0ea
:1024600001ffbdf9081004f1100000f0d9fd294664
:10247000304600f05bfb044610b1204609b0f0bdc9
:1024800001238df80d30294603a8fff7a7ff044666
:102490002b6a4ff47a609847002ceed1294601a8a8
:1024a000fff7a2fc04460028e7d1bdf808303b80c6
:0824b000e3e700bfb8240000bf
:020000040000fa
:1024b800496e697469616c205a2076616c75650093
:1024c80025640a00506f73697469766520646174c5
:1024d80061000000256c640a000000004e65676119
:1024e8007469766520646174610000006f766572b6
:1024f800616c6c20726573756c7420666f722073e2
:10250800656c662074657374000000004348495088
:08251800204944002564000085
:020000040000fa
:10252000144b01221a601a46d369002bfcd1114bbf
:102530004ff480725a601a46d369002bfcd10d4bc0
:102540004322da600c4a1a601a46d369002bfcd188
:10255000084b10225a831a46d369002bfcd1074b33
:10256000002283f8212083f82020024b83229a75d1
:10257000704700bf002001411600100090020020ab
:020000040000fa
:10258000836910b5044633bbc0e912330365124baf
:10259000124a1b688262984204bf01238361fff7dd
:1025a000e1fe60602046fff7ddfea0602046fff7f9
:1025b000d9fe0022e0600421606800f0e5f9012204
:1025c0000921a06800f0e0f902221221e06800f081
:1025d000dbf90123a36110bdf8320000b132000025
:020000040000fa
:1025e000144ad36823f4e0631b041b0c43f0bf635d
:1025f00043f40033d360bff35f8f62b60e4be0222b
:1026000083f81b234ff00061196083f836234ff4e1
:102610008001596083f837234ff40001596083f833
:1026200038234ff08071596083f839234ff00072de
:0c2630005a60704700ed00e000e100e09f
:020000040000fa
:10263c0028b338b50d46044600f0cafbedb10021b5
:10264c00104a137e13f0040ffbd0538b13f0070fbb
:10265c000ed1536803f00703012b936a1dbf20466c
:10266c0000f8013b044624f8023b01318d42e8d1cd
:10267c008d4214bf0020012038bd2946f8e7002008
:08268c00704700bf0004004389
:020000040000fa
:1026940038b50b6905460c46dbb118b183690bb933
:1026a400fff76cff0c4b9c4209d16c68b4f90c30f9
:1026b4007bb121462846bde83840fef73bbe074bb8
:1026c4009c4201d1ac68f1e7054b9c4208bfec6821
:1026d400ece7002038bd00bfdc020020fc02002033
:0426e400bc02002014
:020000040000fa
:1026e80030b583b005460c4600238df807300b46fd
:1026f80001220df107014b2000f08af9034610b1c1
:10270800184603b030bd9df8073023f0010305f0eb
:10271800010213438df80730234601220df107010a
:102728004b2000f02df803460028e9d184f83650f4
:02273800e6e7d2
:020000040000fa
:02273a00fee7b8
:020000040000fa
:10273c00104b00229a61da610f4b83221a765a6889
:10274c0022f480225a601a46d369002bfcd161b165
:10275c00084b032283f8202041ea4001064b5962c2
:10276c001a46d369002bfcd17047024b042283f824
:0c277c002020f1e7900200200020014125
:020000040000fa
:102788002de9f84380460d4616461c46184600f0cb
:10279800d3fb78b9814685b196b10b4b1868876928
:1027a800f3b22a46414690f83700b84720724846a7
:1027b800bde8f8834ff0ff39f9e74ff0ff39f6e746
:0c27c8004ff0ff39f3e700bf440300208e
:020000040000fa
:1027d400f8b50e46096e8904074614460bd4d5187d
:1027e400ac420dd0324614f8011b384600f00cfb05
:1027f4000130f5d10ee023f00303d518ac4201d12a
:10280400002009e0324654f8041b384600f0f0fc7e
:0a2814000130f3d14ff0ff30f8bda2
:020000040000fa
:02281e00fee7d3
:020000040000fa
:10282000e0b110b40446d9b10e4a03e034f8023bdb
:10283000936279b10139137e13f0010ffbd0536815
:1028400003f00703012bf1d0204610f8013b9362ff
:102850000446eee701205df8044b70470020704706
:082860000120f8e70004004329
:020000040000fa
:1028680030b583b005460c460b4601220df1070131
:102878004c2000f0cdf8034610b1184603b030bd27
:10288800ab78db0003f038039df8072022f038020c
:1028980013438df80730234601220df107014c2020
:0828a800fff76eff0346e8e7ad
:020000040000fa
:1028b00030b583b005460c46fff7d6ff034610b18e
:1028c000184603b030bdeb788df80730234601225f
:1028d0000df107015120fff757ff03460028efd104
:1028e0002b798df80730234601220df10701522084
:0828f000fff74aff0346e3e78e
:020000040000fa
:1028f80030b583b005460c460b4601220df10701a1
:102908004e2000f085f8034610b1184603b030bddc
:102918002b78db0003f038039df8072022f03802fb
:1029280013438df80730234601220df107014e208d
:08293800fff726ff0346e8e764
:020000040000fa
:1029400070b50d4d0d4c641ba4100026a64209d194
:102950000b4d0c4cfdf784fc641ba4100026a64212
:1029600005d170bd55f8043b98470136eee755f8a0
:10297000043b98470136f2e76c0200006c0200004d
:082980006c020000700200006f
:020000040000fa
:10298800002310b50446c0e90033836081810366e3
:10299800c281c0e90433836119460822583000f027
:1029a80075fc054b6362054ba362054be362054b5f
:1029b8002462236310bd00bf1d3100006d2c000090
:0829c80069300000e932000053
:020000040000fa
:1029d00070b50e46b1f90e10002990b014461d4690
:1029e00007da00232b60b3891a0610d44ff48063f2
:1029f0000ee001aa00f05cfb0028f2db029a02f470
:102a00007042a2f500535a425a412a60eee7402331
:082a10000020236010b070bd2e
:020000040000fa
:102a18002de9f84305460e4691461c46184600f037
:102a28008bfa90b980469eb16378012b18bf45f0a8
:102a38008005e7695ffa89f33246294694f837003a
:102a4800b84720724046bde8f8834ff0ff38f9e7f1
:062a58004ff0ff38f6e725
:020000040000fa
:102a5e0030b583b004460d460b4601220df1070139
:102a6e004c20fff7d2ff034610b1184603b030bd1d
:102a7e009df8073023f00603640004f006041c439f
:102a8e008df807402b4601220df107014c20fff770
:062a9e0074fe0346e9e7a7
:020000040000fa
:102aa40010b500f0d5fb0e4c23680021586800f0e7
:102ab400dffb23680021986800f0dafb00f0f0f8ef
:102ac400fef7befcfff72afdfef7adfe00f070fa3c
:102ad40000f034f9fff738fbfff780fd10bd00bfad
:042ae4004c0300207f
:020000040000fa
:102ae80030b583b00446034601220df107014b209f
:102af800fff78eff054610b1284603b030bd9df89c
:102b0800073063f07d038df80730234601220df16d
:102b180007014b20fff734fe0546236a4ff47a700d
:042b28009847e9e7fa
:020000040000fa
:102b2c0030b583b005460c460b4601220df107016a
:102b3c004c20fff76bff034610b1184603b030bdb5
:102b4c009df8070000f03f0040ea85108df8070063
:102b5c00234601220df107014c20fff70ffe03461f
:022b6c00ebe795
:020000040000fa
:022b6e00fee780
:020000040000fa
:102b700010b5054c237833b9044b13b10448aff3b7
:102b800000800123237010bd1c0300200000000002
:102b90000000000008b5034b1bb103490348aff325
:102ba000008008bd0000000020030020000000009d
:020000040000fa
:102bb0000c4b1b6803f00303032b00d0704710b4c9
:102bc000094b9c684ff47a7202fb00f20748a0fba5
:102bd0000232920904498b681b1b9342fbd35df8b8
:102be000044b704710e000e038030020d34d621022
:020000040000fa
:102bf00070b5b9b115460ab1022801d9284670bd91
:102c00000a4b2bb108461146aff30080284670bd31
:102c10000c468e1814f8010b00f0d0fab442f9d12a
:102c2000284670bd0d46284670bd00bf000000005c
:020000040000fa
:102c30002de9f8438046894600f14804002614b97e
:102c40003046bde8f883d4e90175013f01d5246819
:102c5000f5e7ab89012b07d9b5f90e30013303d065
:0c2c600029464046c84706436435eee7ad
:020000040000fa
:102c6c002de9f0411f468b89db0505460c461646bf
:102c7c0005d502230022b1f90e1000f025faa38924
:102c8c00b4f90e1023f48053a38132463b462846f8
:082c9c00bde8f04100f0f4b9bd
:020000040000fa
:102ca4000b4b4ff480421a604ff470421a610522b4
:102cb40083f84c2083f84d2083f84f20222283f898
:102cc4003620012283f8d020022283f8b8207047ee
:042cd400008000413b
:020000040000fa
:102cd8000b4b93f820305bb20bb10020704710b556
:102ce8000c46074b98800021d96059619c601a6195
:102cf8009970197083f82110fff71cfd012010bd91
:042d08009002002015
:020000040000fa
:102d0c0010b50b4c94f8204064b20cb1002010bdef
:102d1c00074ca080e360029b6361a16022610021eb
:102d2c00a170217084f82110fff702fd0120eee75d
:042d3c0090020020e1
:020000040000fa
:102d40000a4b0b4a1a604ff622029a814ff4403226
:102d50005a601a46d369002bfcd1044a136843f029
:102d600002031360d369002bfcd1704700040043b9
:042d7000040110400a
:020000040000fa
:102d740030b5adf5017d054610461c468df80010b2
:102d84001a4601460df1010000f024fa621c69465e
:102d94002846fff79fff00f0bdf80028fbd10df592
:042da400017d30bdc0
:020000040000fa
:102da8003031323334353637383941424344454679
:102db800003031323334353637383961626364650f
:102dc8006600232d302b2000686c4c006566674533
:032dd8004647006b
:020000040000fa
:102ddc000a4b5b8b13f0070f0ed0084b80221a7630
:102dec0007225a831b7e13f0040f05d0034b9a6afb
:102dfc001a7e12f0040ffad1704700bf0004004392
:020000040000fa
:102e0c009368013b002b10b4936008da9469a342d9
:102e1c0001db0a2903d15df8044bfef73bbe1368b6
:0e2e2c00581c1060197008465df8044b704782
:020000040000fa
:022e3a00fee7b1
:020000040000fa
:102e3c0030b400eb4004084b03eb84031b7a834251
:102e4c0001d030bc7047044b4400251843f82510c2
:0c2e5c0003eb85035a60f4e770010020ce
:020000040000fa
:102e680070b54a1e642555430e4605f17001fef7fc
:102e780071fe044640b10021c0e900160c30a06084
:0c2e880005f1640200f002fa204670bd63
:020000040000fa
:102e9400f0b5094c85b005461e46d4f8e04009b9a2
:102ea4000a4601a9a047431c01bf002333608a23bb
:0c2eb4002b6005b0f0bd00bf0400002042
:020000040000fa
:102ec000074a136843b10749184488428cbf4ff042
:102ed000ff33106018467047034b1360f3e700bfe1
:0c2ee00058030020600500206003002063
:020000040000fa
:102eec0038b5054600f026f8044610b995f836308a
:102efc000bb1204638bd29460120fff7effb0446f5
:0a2f0c002b6a40f6b8309847f3e74f
:020000040000fa
:022f1600fee7d4
:020000040000fa
:102f1800074b93f820305bb23bb9064b588b00f057
:102f28003000103818bf012070470120704700bfdb
:082f380090020020002001417d
:020000040000fa
:102f400048b1c26952b182695ab1006ab0fa80f0e0
:102f50004009404270474ff0ff3070474ff0ff305c
:082f600070474ff0ff3070478d
:020000040000fa
:102f680070b569b115464ab140b90c468e180120b2
:102f780000f012f904f8010ba642f8d1284670bdfa
:082f88000d46284670bd00bf94
:020000040000fa
:102f900008b5064b4ff400425a61054bd3f8b430e4
:102fa0001bb1034ad2f8b800984708bd002800407a
:042fb000700100208c
:020000040000fa
:102fb400054a00231360936004495160062111609f
:102fc400034a93601360704710e000e0bfd401002f
:042fd400380300209e
:020000040000fa
:102fd80008b5064b1b68064b9a6801329a601b6855
:102fe80013b1034a5068984708bd00bf10e000e0dd
:042ff800380300207a
:020000040000fa
:102ffc0000b585b08df80f100093134601220df12a
:10300c000f01fff77dfefff781ff0028fbd105b014
:04301c005df804fb5c
:020000040000fa
:103020000fb407b5064b04aa1b6852f8041b986836
:10303000019200f005f903b05df804eb04b07047ad
:043040004c0300201d
:020000040000fa
:1030440082b001b901a942b14bb113780b60127877
:10305400101c18bf012002b070471046fbe76ff048
:043064000100f8e788
:020000040000fa
:1030680010b50c46b1f90e1000f030f8431ca389d6
:1030780015bf606523f4805343f48053a38118bfc0
:04308800a38110bd53
:020000040000fa
:10308c0038b5074c054608461146002222601a4600
:10309c0000f038f9431c02d1236803b12b6038bd12
:0430ac000000002000
:020000040000fa
:1030b00038b5074c0023054608461146236000f04a
:1030c0001ff9431c02d1236803b12b6038bd00bf38
:0430d00000000020dc
:020000040000fa
:1030d40038b5074c054608461146002222601a46b8
:1030e40000f010f9431c02d1236803b12b6038bdf2
:0430f40000000020b8
:020000040000fa
:1030f80038b5074c054608461146002222601a4694
:1031080000f000f9431c02d1236803b12b6038bddd
:043118000000002093
:020000040000fa
:10311c0010b50c46b1f90e10fff7e8ff0028abbf55
:10312c00636da3891b1823f48053acbf6365a38123
:02313c0010bdc4
:020000040000fa
:02313e00fee7aa
:020000040000fa
:1031400038b5064c0023054608462360fff7b8fe55
:10315000431c02d1236803b12b6038bd000000205e
:020000040000fa
:1031600038b5064c002305460846236000f0c6f833
:10317000431c02d1236803b12b6038bd000000203e
:020000040000fa
:1031800038b5064c002305460846236000f0baf81f
:10319000431c02d1236803b12b6038bd000000201e
:020000040000fa
:1031a00010b582b0002301930124214601a8fff746
:0c31b00045fa0028f9d0019802b010bdcb
:020000040000fa
:1031bc0010b582b08df80700012421460df10700ef
:0c31cc00fff728fb0028f8d002b010bd6f
:020000040000fa
:1031d8000a44914200f1ff3300d1704710b511f84d
:0c31e800014b03f8014f9142f9d110bdda
:020000040000fa
:1031f400b2f90c3013f4005f06d143f40053938109
:0c320400136e43f400531366fff769b823
:020000040000fa
:1032100049b1ff2a85bf8a2303600a704ff0ff304f
:0a32200098bf012070470846704770
:020000040000fa
:02322a00fee7bd
:020000040000fa
:10322c00034b00229a601a6842f001021a60704740
:04323c0010e000e0be
:020000040000fa
:1032400013460a46014602480068fdf719b800bf58
:043250004c0300200b
:020000040000fa
:10325400024b40f204521a80704700bf0040004104
:020000040000fa
:10326400024b01461868fef7b3bb00bf4c030020b5
:020000040000fa
:1032740000294ff480630cbf02220022fdf7aebf89
:020000040000fa
:10328400024b01461868fef767bc00bf4c030020e0
:020000040000fa
:1032940002440346934200d1704703f8011bf9e747
:020000040000fa
:0c32a400014b01221a7070475c030020ef
:020000040000fa
:0c32b0000149fff7bdbc00bf95260000df
:020000040000fa
:0c32bc00014b93f828017047040000202b
:020000040000fa
:0c32c8004ff400534b600020704700bf23
:020000040000fa
:0b32d4004300504f53495800002e00eb
:020000040000fa
:0832e00008b5fff765fc08bd0d
:020000040000fa
:0832e800b1f90e10fff738bf29
:020000040000fa
:0832f0004ff0ff30704700bff2
:020000040000fa
:0432f8003002002080
:020000040000fa
:0432fc00fff7f8bf21
:020000040000fa
:04330000fff7e2bf32
:020000040000fa
:0433040000f006b817
:020000040000fa
:0433080000f006b813
:020000040000fa
:04330c00fff72cbedd
:020000040000fa
:04331000fff76ebc99
:020000040000fa
:0433140001207047dd
:020000040000fa
:0433180000207047da
:020000040000fa
:02331c007047f8
:020000040000fa
:02331e007047f6
:020000040000fa
:0200000400807a
:044000003912003c35
:020000040000fa
:0200000400807a
:044004008000a82a66
:020000040000fa
:0200000400807a
:04400800ffffffffb8
:00000001FF
